{
  "_format": "hh-sol-artifact-1",
  "contractName": "HealthcareData",
  "sourceName": "contracts/HealthcareData.sol",
  "abi": [
    {
      "inputs": [
        {
          "internalType": "string",
          "name": "_name",
          "type": "string"
        },
        {
          "internalType": "uint256",
          "name": "_age",
          "type": "uint256"
        },
        {
          "internalType": "string",
          "name": "_medicalHistory",
          "type": "string"
        }
      ],
      "name": "addPatientData",
      "outputs": [],
      "stateMutability": "nonpayable",
      "type": "function"
    },
    {
      "inputs": [
        {
          "internalType": "address",
          "name": "_patient",
          "type": "address"
        }
      ],
      "name": "getPatientData",
      "outputs": [
        {
          "internalType": "string",
          "name": "",
          "type": "string"
        },
        {
          "internalType": "uint256",
          "name": "",
          "type": "uint256"
        },
        {
          "internalType": "string",
          "name": "",
          "type": "string"
        }
      ],
      "stateMutability": "view",
      "type": "function"
    },
    {
      "inputs": [
        {
          "internalType": "address",
          "name": "",
          "type": "address"
        }
      ],
      "name": "patients",
      "outputs": [
        {
          "internalType": "string",
          "name": "name",
          "type": "string"
        },
        {
          "internalType": "uint256",
          "name": "age",
          "type": "uint256"
        },
        {
          "internalType": "string",
          "name": "medicalHistory",
          "type": "string"
        }
      ],
      "stateMutability": "view",
      "type": "function"
    }
  ],
  "bytecode": "0x6080604052348015600f57600080fd5b50610ac28061001f6000396000f3fe608060405234801561001057600080fd5b50600436106100415760003560e01c80630869cfbc1461004657806348e8185214610078578063db1e4f16146100aa575b600080fd5b610060600480360381019061005b91906104a7565b6100c6565b60405161006f9392919061057d565b60405180910390f35b610092600480360381019061008d91906104a7565b610200565b6040516100a19392919061057d565b60405180910390f35b6100c460048036038101906100bf9190610723565b61039e565b005b60006020528060005260406000206000915090508060000180546100e9906107dd565b80601f0160208091040260200160405190810160405280929190818152602001828054610115906107dd565b80156101625780601f1061013757610100808354040283529160200191610162565b820191906000526020600020905b81548152906001019060200180831161014557829003601f168201915b50505050509080600101549080600201805461017d906107dd565b80601f01602080910402602001604051908101604052809291908181526020018280546101a9906107dd565b80156101f65780601f106101cb576101008083540402835291602001916101f6565b820191906000526020600020905b8154815290600101906020018083116101d957829003601f168201915b5050505050905083565b60606000606060008060008673ffffffffffffffffffffffffffffffffffffffff1673ffffffffffffffffffffffffffffffffffffffff168152602001908152602001600020604051806060016040529081600082018054610261906107dd565b80601f016020809104026020016040519081016040528092919081815260200182805461028d906107dd565b80156102da5780601f106102af576101008083540402835291602001916102da565b820191906000526020600020905b8154815290600101906020018083116102bd57829003601f168201915b50505050508152602001600182015481526020016002820180546102fd906107dd565b80601f0160208091040260200160405190810160405280929190818152602001828054610329906107dd565b80156103765780601f1061034b57610100808354040283529160200191610376565b820191906000526020600020905b81548152906001019060200180831161035957829003601f168201915b5050505050815250509050806000015181602001518260400151935093509350509193909250565b6040518060600160405280848152602001838152602001828152506000803373ffffffffffffffffffffffffffffffffffffffff1673ffffffffffffffffffffffffffffffffffffffff168152602001908152602001600020600082015181600001908161040c91906109ba565b5060208201518160010155604082015181600201908161042c91906109ba565b50905050505050565b6000604051905090565b600080fd5b600080fd5b600073ffffffffffffffffffffffffffffffffffffffff82169050919050565b600061047482610449565b9050919050565b61048481610469565b811461048f57600080fd5b50565b6000813590506104a18161047b565b92915050565b6000602082840312156104bd576104bc61043f565b5b60006104cb84828501610492565b91505092915050565b600081519050919050565b600082825260208201905092915050565b60005b8381101561050e5780820151818401526020810190506104f3565b60008484015250505050565b6000601f19601f8301169050919050565b6000610536826104d4565b61054081856104df565b93506105508185602086016104f0565b6105598161051a565b840191505092915050565b6000819050919050565b61057781610564565b82525050565b60006060820190508181036000830152610597818661052b565b90506105a6602083018561056e565b81810360408301526105b8818461052b565b9050949350505050565b600080fd5b600080fd5b7f4e487b7100000000000000000000000000000000000000000000000000000000600052604160045260246000fd5b6106048261051a565b810181811067ffffffffffffffff82111715610623576106226105cc565b5b80604052505050565b6000610636610435565b905061064282826105fb565b919050565b600067ffffffffffffffff821115610662576106616105cc565b5b61066b8261051a565b9050602081019050919050565b82818337600083830152505050565b600061069a61069584610647565b61062c565b9050828152602081018484840111156106b6576106b56105c7565b5b6106c1848285610678565b509392505050565b600082601f8301126106de576106dd6105c2565b5b81356106ee848260208601610687565b91505092915050565b61070081610564565b811461070b57600080fd5b50565b60008135905061071d816106f7565b92915050565b60008060006060848603121561073c5761073b61043f565b5b600084013567ffffffffffffffff81111561075a57610759610444565b5b610766868287016106c9565b93505060206107778682870161070e565b925050604084013567ffffffffffffffff81111561079857610797610444565b5b6107a4868287016106c9565b9150509250925092565b7f4e487b7100000000000000000000000000000000000000000000000000000000600052602260045260246000fd5b600060028204905060018216806107f557607f821691505b602082108103610808576108076107ae565b5b50919050565b60008190508160005260206000209050919050565b60006020601f8301049050919050565b600082821b905092915050565b6000600883026108707fffffffffffffffffffffffffffffffffffffffffffffffffffffffffffffffff82610833565b61087a8683610833565b95508019841693508086168417925050509392505050565b6000819050919050565b60006108b76108b26108ad84610564565b610892565b610564565b9050919050565b6000819050919050565b6108d18361089c565b6108e56108dd826108be565b848454610840565b825550505050565b600090565b6108fa6108ed565b6109058184846108c8565b505050565b5b818110156109295761091e6000826108f2565b60018101905061090b565b5050565b601f82111561096e5761093f8161080e565b61094884610823565b81016020851015610957578190505b61096b61096385610823565b83018261090a565b50505b505050565b600082821c905092915050565b600061099160001984600802610973565b1980831691505092915050565b60006109aa8383610980565b9150826002028217905092915050565b6109c3826104d4565b67ffffffffffffffff8111156109dc576109db6105cc565b5b6109e682546107dd565b6109f182828561092d565b600060209050601f831160018114610a245760008415610a12578287015190505b610a1c858261099e565b865550610a84565b601f198416610a328661080e565b60005b82811015610a5a57848901518255600182019150602085019450602081019050610a35565b86831015610a775784890151610a73601f891682610980565b8355505b6001600288020188555050505b50505050505056fea264697066735822122046f6f1c1e2a69ddae0962d3cec4e2c0836c17f6b2644ebf4887d1868bf3e83aa64736f6c634300081b0033",
  "linkReferences": {},
  "deployedLinkReferences": {}
}