{
  "_format": "hh-sol-artifact-1",
  "contractName": "AtomicSwap",
  "sourceName": "contracts/AtomicSwap.sol",
  "abi": [
    {
      "inputs": [
        {
          "internalType": "bytes32",
          "name": "_hash",
          "type": "bytes32"
        },
        {
          "internalType": "string",
          "name": "_secret",
          "type": "string"
        }
      ],
      "name": "completeSwap",
      "outputs": [],
      "stateMutability": "nonpayable",
      "type": "function"
    },
    {
      "inputs": [
        {
          "internalType": "bytes32",
          "name": "_hash",
          "type": "bytes32"
        },
        {
          "internalType": "address",
          "name": "_receiver",
          "type": "address"
        },
        {
          "internalType": "string",
          "name": "_data",
          "type": "string"
        }
      ],
      "name": "createSwap",
      "outputs": [],
      "stateMutability": "nonpayable",
      "type": "function"
    },
    {
      "inputs": [
        {
          "internalType": "bytes32",
          "name": "",
          "type": "bytes32"
        }
      ],
      "name": "swaps",
      "outputs": [
        {
          "internalType": "address",
          "name": "sender",
          "type": "address"
        },
        {
          "internalType": "address",
          "name": "receiver",
          "type": "address"
        },
        {
          "internalType": "string",
          "name": "data",
          "type": "string"
        },
        {
          "internalType": "bool",
          "name": "completed",
          "type": "bool"
        }
      ],
      "stateMutability": "view",
      "type": "function"
    }
  ],
  "bytecode": "0x6080604052348015600f57600080fd5b50610f508061001f6000396000f3fe608060405234801561001057600080fd5b50600436106100415760003560e01c806320020176146100465780639642b59b14610062578063eb84e7f21461007e575b600080fd5b610060600480360381019061005b91906107e4565b6100b1565b005b61007c6004803603810190610077919061089e565b61037d565b005b6100986004803603810190610093919061090d565b61054f565b6040516100a894939291906109e3565b60405180910390f35b81816040516020016100c39190610a6b565b6040516020818303038152906040528051906020012014610119576040517f08c379a000000000000000000000000000000000000000000000000000000000815260040161011090610ace565b60405180910390fd5b60008060008481526020019081526020016000206040518060800160405290816000820160009054906101000a900473ffffffffffffffffffffffffffffffffffffffff1673ffffffffffffffffffffffffffffffffffffffff1673ffffffffffffffffffffffffffffffffffffffff1681526020016001820160009054906101000a900473ffffffffffffffffffffffffffffffffffffffff1673ffffffffffffffffffffffffffffffffffffffff1673ffffffffffffffffffffffffffffffffffffffff1681526020016002820180546101f490610b1d565b80601f016020809104026020016040519081016040528092919081815260200182805461022090610b1d565b801561026d5780601f106102425761010080835404028352916020019161026d565b820191906000526020600020905b81548152906001019060200180831161025057829003601f168201915b505050505081526020016003820160009054906101000a900460ff16151515158152505090508060600151156102d8576040517f08c379a00000000000000000000000000000000000000000000000000000000081526004016102cf90610b9a565b60405180910390fd5b3373ffffffffffffffffffffffffffffffffffffffff16816020015173ffffffffffffffffffffffffffffffffffffffff161461034a576040517f08c379a000000000000000000000000000000000000000000000000000000000815260040161034190610c06565b60405180910390fd5b600160008085815260200190815260200160002060030160006101000a81548160ff021916908315150217905550505050565b600073ffffffffffffffffffffffffffffffffffffffff1660008085815260200190815260200160002060000160009054906101000a900473ffffffffffffffffffffffffffffffffffffffff1673ffffffffffffffffffffffffffffffffffffffff1614610421576040517f08c379a000000000000000000000000000000000000000000000000000000000815260040161041890610c72565b60405180910390fd5b60405180608001604052803373ffffffffffffffffffffffffffffffffffffffff1681526020018373ffffffffffffffffffffffffffffffffffffffff1681526020018281526020016000151581525060008085815260200190815260200160002060008201518160000160006101000a81548173ffffffffffffffffffffffffffffffffffffffff021916908373ffffffffffffffffffffffffffffffffffffffff16021790555060208201518160010160006101000a81548173ffffffffffffffffffffffffffffffffffffffff021916908373ffffffffffffffffffffffffffffffffffffffff16021790555060408201518160020190816105269190610e48565b5060608201518160030160006101000a81548160ff021916908315150217905550905050505050565b60006020528060005260406000206000915090508060000160009054906101000a900473ffffffffffffffffffffffffffffffffffffffff16908060010160009054906101000a900473ffffffffffffffffffffffffffffffffffffffff16908060020180546105be90610b1d565b80601f01602080910402602001604051908101604052809291908181526020018280546105ea90610b1d565b80156106375780601f1061060c57610100808354040283529160200191610637565b820191906000526020600020905b81548152906001019060200180831161061a57829003601f168201915b5050505050908060030160009054906101000a900460ff16905084565b6000604051905090565b600080fd5b600080fd5b6000819050919050565b61067b81610668565b811461068657600080fd5b50565b60008135905061069881610672565b92915050565b600080fd5b600080fd5b6000601f19601f8301169050919050565b7f4e487b7100000000000000000000000000000000000000000000000000000000600052604160045260246000fd5b6106f1826106a8565b810181811067ffffffffffffffff821117156107105761070f6106b9565b5b80604052505050565b6000610723610654565b905061072f82826106e8565b919050565b600067ffffffffffffffff82111561074f5761074e6106b9565b5b610758826106a8565b9050602081019050919050565b82818337600083830152505050565b600061078761078284610734565b610719565b9050828152602081018484840111156107a3576107a26106a3565b5b6107ae848285610765565b509392505050565b600082601f8301126107cb576107ca61069e565b5b81356107db848260208601610774565b91505092915050565b600080604083850312156107fb576107fa61065e565b5b600061080985828601610689565b925050602083013567ffffffffffffffff81111561082a57610829610663565b5b610836858286016107b6565b9150509250929050565b600073ffffffffffffffffffffffffffffffffffffffff82169050919050565b600061086b82610840565b9050919050565b61087b81610860565b811461088657600080fd5b50565b60008135905061089881610872565b92915050565b6000806000606084860312156108b7576108b661065e565b5b60006108c586828701610689565b93505060206108d686828701610889565b925050604084013567ffffffffffffffff8111156108f7576108f6610663565b5b610903868287016107b6565b9150509250925092565b6000602082840312156109235761092261065e565b5b600061093184828501610689565b91505092915050565b61094381610860565b82525050565b600081519050919050565b600082825260208201905092915050565b60005b83811015610983578082015181840152602081019050610968565b60008484015250505050565b600061099a82610949565b6109a48185610954565b93506109b4818560208601610965565b6109bd816106a8565b840191505092915050565b60008115159050919050565b6109dd816109c8565b82525050565b60006080820190506109f8600083018761093a565b610a05602083018661093a565b8181036040830152610a17818561098f565b9050610a2660608301846109d4565b95945050505050565b600081905092915050565b6000610a4582610949565b610a4f8185610a2f565b9350610a5f818560208601610965565b80840191505092915050565b6000610a778284610a3a565b915081905092915050565b7f496e76616c696420736563726574000000000000000000000000000000000000600082015250565b6000610ab8600e83610954565b9150610ac382610a82565b602082019050919050565b60006020820190508181036000830152610ae781610aab565b9050919050565b7f4e487b7100000000000000000000000000000000000000000000000000000000600052602260045260246000fd5b60006002820490506001821680610b3557607f821691505b602082108103610b4857610b47610aee565b5b50919050565b7f5377617020616c726561647920636f6d706c6574656400000000000000000000600082015250565b6000610b84601683610954565b9150610b8f82610b4e565b602082019050919050565b60006020820190508181036000830152610bb381610b77565b9050919050565b7f4e6f7420617574686f72697a6564000000000000000000000000000000000000600082015250565b6000610bf0600e83610954565b9150610bfb82610bba565b602082019050919050565b60006020820190508181036000830152610c1f81610be3565b9050919050565b7f5377617020616c72656164792065786973747300000000000000000000000000600082015250565b6000610c5c601383610954565b9150610c6782610c26565b602082019050919050565b60006020820190508181036000830152610c8b81610c4f565b9050919050565b60008190508160005260206000209050919050565b60006020601f8301049050919050565b600082821b905092915050565b600060088302610cf47fffffffffffffffffffffffffffffffffffffffffffffffffffffffffffffffff82610cb7565b610cfe8683610cb7565b95508019841693508086168417925050509392505050565b6000819050919050565b6000819050919050565b6000610d45610d40610d3b84610d16565b610d20565b610d16565b9050919050565b6000819050919050565b610d5f83610d2a565b610d73610d6b82610d4c565b848454610cc4565b825550505050565b600090565b610d88610d7b565b610d93818484610d56565b505050565b5b81811015610db757610dac600082610d80565b600181019050610d99565b5050565b601f821115610dfc57610dcd81610c92565b610dd684610ca7565b81016020851015610de5578190505b610df9610df185610ca7565b830182610d98565b50505b505050565b600082821c905092915050565b6000610e1f60001984600802610e01565b1980831691505092915050565b6000610e388383610e0e565b9150826002028217905092915050565b610e5182610949565b67ffffffffffffffff811115610e6a57610e696106b9565b5b610e748254610b1d565b610e7f828285610dbb565b600060209050601f831160018114610eb25760008415610ea0578287015190505b610eaa8582610e2c565b865550610f12565b601f198416610ec086610c92565b60005b82811015610ee857848901518255600182019150602085019450602081019050610ec3565b86831015610f055784890151610f01601f891682610e0e565b8355505b6001600288020188555050505b50505050505056fea26469706673582212209274f6c74830755233a08e2adfd891c447a420a4991f8093e5e4bdf2c8c9935664736f6c634300081b0033",
  "linkReferences": {},
  "deployedLinkReferences": {}
}